{
	"data": {
		"bytecode": {
			"linkReferences": {},
			"object": "608060405234801561001057600080fd5b50610175806100206000396000f3fe608060405234801561001057600080fd5b50600436106100625760003560e01c80630b1a470a1461006757806316ada547146100715780633beb26c41461008f5780638fb03560146100bd578063958f3b2d146100c7578063d18e81b3146100d1575b600080fd5b61006f6100ef565b005b610079610103565b6040518082815260200191505060405180910390f35b6100bb600480360360208110156100a557600080fd5b8101908080359060200190929190505050610109565b005b6100c5610113565b005b6100cf610123565b005b6100d9610136565b6040518082815260200191505060405180910390f35b600080815480929190600190039190505550565b60005481565b8060008190555050565b6201518060005401600081905550565b6000808154809291906001019190505550565b6000805490509056fea264697066735822122051a1847364e1ce4a93b3953f2855d44e3c0fd1c5db80d788d4d91e5f5d18f0a464736f6c63430007060033",
			"opcodes": "PUSH1 0x80 PUSH1 0x40 MSTORE CALLVALUE DUP1 ISZERO PUSH2 0x10 JUMPI PUSH1 0x0 DUP1 REVERT JUMPDEST POP PUSH2 0x175 DUP1 PUSH2 0x20 PUSH1 0x0 CODECOPY PUSH1 0x0 RETURN INVALID PUSH1 0x80 PUSH1 0x40 MSTORE CALLVALUE DUP1 ISZERO PUSH2 0x10 JUMPI PUSH1 0x0 DUP1 REVERT JUMPDEST POP PUSH1 0x4 CALLDATASIZE LT PUSH2 0x62 JUMPI PUSH1 0x0 CALLDATALOAD PUSH1 0xE0 SHR DUP1 PUSH4 0xB1A470A EQ PUSH2 0x67 JUMPI DUP1 PUSH4 0x16ADA547 EQ PUSH2 0x71 JUMPI DUP1 PUSH4 0x3BEB26C4 EQ PUSH2 0x8F JUMPI DUP1 PUSH4 0x8FB03560 EQ PUSH2 0xBD JUMPI DUP1 PUSH4 0x958F3B2D EQ PUSH2 0xC7 JUMPI DUP1 PUSH4 0xD18E81B3 EQ PUSH2 0xD1 JUMPI JUMPDEST PUSH1 0x0 DUP1 REVERT JUMPDEST PUSH2 0x6F PUSH2 0xEF JUMP JUMPDEST STOP JUMPDEST PUSH2 0x79 PUSH2 0x103 JUMP JUMPDEST PUSH1 0x40 MLOAD DUP1 DUP3 DUP2 MSTORE PUSH1 0x20 ADD SWAP2 POP POP PUSH1 0x40 MLOAD DUP1 SWAP2 SUB SWAP1 RETURN JUMPDEST PUSH2 0xBB PUSH1 0x4 DUP1 CALLDATASIZE SUB PUSH1 0x20 DUP2 LT ISZERO PUSH2 0xA5 JUMPI PUSH1 0x0 DUP1 REVERT JUMPDEST DUP2 ADD SWAP1 DUP1 DUP1 CALLDATALOAD SWAP1 PUSH1 0x20 ADD SWAP1 SWAP3 SWAP2 SWAP1 POP POP POP PUSH2 0x109 JUMP JUMPDEST STOP JUMPDEST PUSH2 0xC5 PUSH2 0x113 JUMP JUMPDEST STOP JUMPDEST PUSH2 0xCF PUSH2 0x123 JUMP JUMPDEST STOP JUMPDEST PUSH2 0xD9 PUSH2 0x136 JUMP JUMPDEST PUSH1 0x40 MLOAD DUP1 DUP3 DUP2 MSTORE PUSH1 0x20 ADD SWAP2 POP POP PUSH1 0x40 MLOAD DUP1 SWAP2 SUB SWAP1 RETURN JUMPDEST PUSH1 0x0 DUP1 DUP2 SLOAD DUP1 SWAP3 SWAP2 SWAP1 PUSH1 0x1 SWAP1 SUB SWAP2 SWAP1 POP SSTORE POP JUMP JUMPDEST PUSH1 0x0 SLOAD DUP2 JUMP JUMPDEST DUP1 PUSH1 0x0 DUP2 SWAP1 SSTORE POP POP JUMP JUMPDEST PUSH3 0x15180 PUSH1 0x0 SLOAD ADD PUSH1 0x0 DUP2 SWAP1 SSTORE POP JUMP JUMPDEST PUSH1 0x0 DUP1 DUP2 SLOAD DUP1 SWAP3 SWAP2 SWAP1 PUSH1 0x1 ADD SWAP2 SWAP1 POP SSTORE POP JUMP JUMPDEST PUSH1 0x0 DUP1 SLOAD SWAP1 POP SWAP1 JUMP INVALID LOG2 PUSH5 0x6970667358 0x22 SLT KECCAK256 MLOAD LOG1 DUP5 PUSH20 0x64E1CE4A93B3953F2855D44E3C0FD1C5DB80D788 0xD4 0xD9 0x1E 0x5F 0x5D XOR CREATE LOG4 PUSH5 0x736F6C6343 STOP SMOD MOD STOP CALLER "
		},
		"gasEstimates": {
			"creation": {
				"codeDepositCost": "74600",
				"executionCost": "123",
				"totalCost": "74723"
			},
			"external": {
				"addOneDay()": "21008",
				"currentTime()": "1101",
				"decTime()": "20962",
				"incTime()": "21047",
				"setTime(uint256)": "20264",
				"time()": "1005"
			}
		},
		"methodIdentifiers": {
			"addOneDay()": "8fb03560",
			"currentTime()": "d18e81b3",
			"decTime()": "0b1a470a",
			"incTime()": "958f3b2d",
			"setTime(uint256)": "3beb26c4",
			"time()": "16ada547"
		}
	},
	"abi": [
		{
			"inputs": [],
			"name": "addOneDay",
			"outputs": [],
			"stateMutability": "nonpayable",
			"type": "function"
		},
		{
			"inputs": [],
			"name": "currentTime",
			"outputs": [
				{
					"internalType": "uint256",
					"name": "",
					"type": "uint256"
				}
			],
			"stateMutability": "view",
			"type": "function"
		},
		{
			"inputs": [],
			"name": "decTime",
			"outputs": [],
			"stateMutability": "nonpayable",
			"type": "function"
		},
		{
			"inputs": [],
			"name": "incTime",
			"outputs": [],
			"stateMutability": "nonpayable",
			"type": "function"
		},
		{
			"inputs": [
				{
					"internalType": "uint256",
					"name": "_time",
					"type": "uint256"
				}
			],
			"name": "setTime",
			"outputs": [],
			"stateMutability": "nonpayable",
			"type": "function"
		},
		{
			"inputs": [],
			"name": "time",
			"outputs": [
				{
					"internalType": "uint256",
					"name": "",
					"type": "uint256"
				}
			],
			"stateMutability": "view",
			"type": "function"
		}
	]
}